0302FGTS114085790000160LEROY MERLIN CIA BRASILEIRA BR22022022                                                                 000000000000000000000000000000000000000000000000000001
109970502623745LEROY MERLIN CIA BRASILEIRA BRICOLAGEM  1001202231012022                                                         1014387840001050000000000000000000000000000000000002
2099705026237450000162021300000000000DENISE ELISANDRA CARVALHO LOPES        004092012CTA_RECURSAL 0000000084811               011014387840001050000000000000016000001204152011000003
2099705026237450000092627000000000000MINST PUBLICO DO TRAB                  024112008CTA_RECURSAL 0000001718095               011014387840001050000000000000042164320050420200000004
80997050262374500000000000000000000000                                                                                          1014387840001059999999999999999999999999999999000005
109970502623745LEROY MERLIN CIA BRASILEIRA BRICOLAGEM  1001202231012022                                                         1014387840003690000000000000000000000000000000000006
2099705026237450000053842400000000000ADRIANA APARECIDA DOS SANTOS           004092005CTA_RECURSAL 0000000743981               011014387840003690000000000000002000000000194902000007
2099705026237450000018451709323134856ANA RITA ARAUJO                        002091999CTA_RECURSAL 0000000382426               011014387840003691217115746300001000000003212001000008
2099705026237450000115260000000000000MARCELO GONTHEIRO LICHT                007072010CTA_RECURSAL 0000000850738               011014387840003690000000000000006000000005442009000009
2099705026237450000127609100000000000MARCELO GONTHEIRO LICHT                013042011CTA_RECURSAL 0000001725713               011014387840003690000000000000006000000005442009000010
2099705026237450000138376900000000000MARCELO GONTHEIRO LICHT                014092011CTA_RECURSAL 0000000903882               011014387840003690000000000000006000054400362009000011
2099705026237450000115252000000000000MARCIO TADEU MIETI SILVA               007072010CTA_RECURSAL 0000000850738               011014387840003690000000000000006000000005452009000012
2099705026237450000128923100000000000MARCIO TADEU MIETI SILVA               006052011CTA_RECURSAL 0000001725713               011014387840003690000000000000006000000005452009000013
2099705026237450000123557300000000000MARIA ESTELA SANTOS                    019012011CTA_RECURSAL 0000000871039               011014387840003690000000000000004000000015042009000014
2099705026237450000087569226041619825ROGERIO DUTRA PATRICIO                 006082008CTA_RECURSAL 0000000874180               011014387840003691253963379102007000000000002601000015
80997050262374500000000000000000000000                                                                                          1014387840003699999999999999999999999999999999000016
109970502623745LEROY MERLIN CIA BRASILEIRA BRICOLAGEM  1001202231012022                                                         1014387840004400000000000000000000000000000000000017
2099705026237450000198590400000000000CAROLINA SILVA BUZOLLO                 017042014CTA_RECURSAL 0000000930941               011014387840004400000000000000001000000235052012000018
2099705026237450000098919117391001821ELISANGELA DA COSTA LIMA               003042009CTA_RECURSAL 0000000525472               011014387840004401242538340000010000000003022007000019
2099705026237450000036824318212113833GILBERTO FERREIRA DE CASTRO            008012000CTA_RECURSAL 0000000857013               011014387840004401205882320800002000000004852003000020
2099705026237450000038886419558947873JOSE ROBERTO DOS SANTOS                014092001CTA_RECURSAL 0000000607281               011014387840004401249107306600005000000006502003000021
2099705026237450000045785826678417860JOSIAS MARTINS                         009022000CTA_RECURSAL 0000000850911               011014387840004401277603085300003000000001682004000022
2099705026237450000088778000000000000MARIANA BEZERRA DOS SANTOS             004092008CTA_RECURSAL 0000000870647               011014387840004400000000000000065000000016002008000023
2099705026237450000051360000000000000RICARDO DE CARVALHO SOARES             019122001CTA_RECURSAL 0000000566980               011014387840004400000000000000005000000000272004000024
80997050262374500000000000000000000000                                                                                          1014387840004409999999999999999999999999999999000025
109970502623745LEROY MERLIN CIA BRASILEIRA BRICOLAGEM  1001202231012022                                                         1014387840005200000000000000000000000000000000000026
2099705026237450000013174004327734608ADRIANO DE FREITAS SILVA               006062000CTA_RECURSAL 0000000108477               011014387840005201274663509900004000000000059501000027
2099705026237450000017803704234450650ALBERTO LUIZ NOGUEIRA GARCIA           006062000CTA_RECURSAL 0000000016274               011014387840005201272122109600004000000001692001000028
2099705026237450000026519394223718649ALEXSANDRO COELHO DE SOUZA             001061998CTA_RECURSAL 0000000336309               011014387840005201254724330100004000000004872002000029
2099705026237450000116577000000000000FERNANDO RODRIGUES SANTOS              006082010CTA_RECURSAL 0000001414092               011014387840005200000000000000003000000013602009000030
2099705026237450000042824600000000000MARCELO FERNANDES BARROS               011072004CTA_RECURSAL 0000000592481               011014387840005200000000000000002000000001202004000031
2099705026237450000048342501235453669RENAN LENDER ALVARENGA                 001072000CTA_RECURSAL 0000000002490               011014387840005201262284409500003000000007642004000032
80997050262374500000000000000000000000                                                                                          1014387840005209999999999999999999999999999999000033
109970502623745LEROY MERLIN CIA BRASILEIRA BRICOLAGEM  1001202231012022                                                         1014387840007920000000000000000000000000000000000034
2099705026237450000210042600000000000GLAUCIA PAULA SOUZA                    011092014CTA_RECURSAL 0000000971787               011014387840007920000000000000066000001560622012000035
2099705026237450000077741000000000000RENATO AFONSO LIMA                     001082007CTA_RECURSAL 0000000404754               011014387840007920000000000000001178620030010100000036
80997050262374500000000000000000000000                                                                                          1014387840007929999999999999999999999999999999000037
109970502623745LEROY MERLIN CIA BRASILEIRA BRICOLAGEM  1001202231012022                                                         1014387840009540000000000000000000000000000000000038
2099705026237450000198565300000000000VALDEMIR SEVERINO ALVES                007042014CTA_RECURSAL 0000000933667               011014387840009540000000000000045000000996272013000039
80997050262374500000000000000000000000                                                                                          1014387840009549999999999999999999999999999999000040
109970502623745LEROY MERLIN CIA BRASILEIRA BRICOLAGEM  1001202231012022                                                         1014387840010980000000000000000000000000000000000041
2099705026237450000103246002216554928NOIMI KONONCZUK                        031082009CTA_RECURSAL 0000000041061               011014387840010981254557473400018000000351782007000042
80997050262374500000000000000000000000                                                                                          1014387840010989999999999999999999999999999999000043
109970502623745LEROY MERLIN CIA BRASILEIRA BRICOLAGEM  1001202231012022                                                         1014387840011790000000000000000000000000000000000044
2099705026237450000154762100000000000MICHELLE CARVALHO ARCIPRETI VIRGILIO   005072012CTA_RECURSAL 0000001759695               011014387840011790000000000000001000001649702010000045
80997050262374500000000000000000000000                                                                                          1014387840011799999999999999999999999999999999000046
109970502623745LEROY MERLIN CIA BRASILEIRA BRICOLAGEM  1001202231012022                                                         1014387840012500000000000000000000000000000000000047
2099705026237450000103220600000000000CASSIO TIAGO BARRONCAS                 011082009CTA_RECURSAL 0000000874068               011014387840012500000000000000038000000013732007000048
2099705026237450000107462600000000000PRISCILLA ALVARENGA SILVA              021122009CTA_RECURSAL 0000000009121               011014387840012500000000000000058000000011122008000049
80997050262374500000000000000000000000                                                                                          1014387840012509999999999999999999999999999999000050
109970502623745LEROY MERLIN CIA BRASILEIRA BRICOLAGEM  1001202231012022                                                         1014387840013300000000000000000000000000000000000051
2099705026237450000098064002104403413JOSE ANTONIO DA SILVA                  010032009CTA_RECURSAL 0000000126681               011014387840013301233251187500073000000010392005000052
80997050262374500000000000000000000000                                                                                          1014387840013309999999999999999999999999999999000053
109970502623745LEROY MERLIN CIA BRASILEIRA BRICOLAGEM  1001202231012022                                                         1014387840014110000000000000000000000000000000000054
2099705026237450000063082704745297629WILLIAN RIOS MORAES                    001092005CTA_RECURSAL 0000000123587               011014387840014111311362727200014000000007532006000055
80997050262374500000000000000000000000                                                                                          1014387840014119999999999999999999999999999999000056
109970502623745LEROY MERLIN CIA BRASILEIRA BRICOLAGEM  1001202231012022                                                         1014387840016830000000000000000000000000000000000057
2099705026237450000168887000000000000MICHELLE CARVALHO ARCIPRETTI VIRGILIO  005122012CTA_RECURSAL 0000000911391               011014387840016830000000000000001000001649702010000058
80997050262374500000000000000000000000                                                                                          1014387840016839999999999999999999999999999999000059
109970502623745LEROY MERLIN CIA BRASILEIRA BRICOLAGEM  1001202231012022                                                         1014387840024930000000000000000000000000000000000060
2099705026237450000216040200000000000DENISE ELOY SILVA                      028112014CTA_RECURSAL 0000001153358               011014387840024930000000000000010000000591672013000061
80997050262374500000000000000000000000                                                                                          1014387840024939999999999999999999999999999999000062
90000013000003500000130000000025719854                                                                                          9999999999999999999999999999999999999999999999000063
