0302FGTS114085790000160SISPRO S/A SERVICOS E TECNOLOG22022022                                                                 000000000000000000000000000000000000000000000000000001
105922300014951SISPRO S/A SERVICOS E TECNOLOGIA DE INFO1001202231012022                                                         1872520450001310000000000000000000000000000000000002
2059223000149510000014040025681788091ABEL CARDENAL DE MOURA                 001121981CTA_RECURSAL 0000000141132               011872520450001311025797549400926000000000254011000003
2059223000149510000019513200000000000ARMANDO LUIZ ARRUDA                    015122010CTA_RECURSAL 0000001750819               011872520450001310000000000000042001118200604202000004
2059223000149510000011660729788692087ELAINE MARIA POSSEBON                  002091985CTA_RECURSAL 0000000005824               011872520450001311070649721700000000000000000000000005
2059223000149510000011652600000000000JOAO FRANCISCO MONTEIRO                003031986CTA_RECURSAL 0000000113216               011872520450001311037691002700000000000000000000000006
2059223000149510000019068800000000000JOSE CLAUDIO SILVA DA SILVA            006082009CTA_RECURSAL 0000000002077               011872520450001310000000000000025001074200802504000007
2059223000149510000018940000000000000JULIANA BRUN                           019062009CTA_RECURSAL 0000000000040               011872520450001310000000000000002361200920204000000008
2059223000149510000021852300000000000LEANDRO SILVEIRA E SOUZA               002052002CTA_RECURSAL 0000001011670               011872520450001311236811769700005204097420135040000009
2059223000149510000011628339916618020MISAEL T DE OLIVEIRA                   001071988CTA_RECURSAL 0000000123651               011872520450001311081275641700000000000000000000000010
2059223000149510000004532718354750949SONIA REGINA LEMOS CAVALHEIRO          016101986CTA_RECURSAL 0000000105673000000404040404011872520450001311022269809500000000000000000000000011
2059223000149510000006632400000000000TERESSINHA B CARDOSO                   015091982CTA_RECURSAL 0000000138991000000404040404011872520450001311072504174600000000000000000000000012
80592230001495100000000000000000000000                                                                                          1872520450001319999999999999999999999999999999000013
105922300014951SISPRO S/A SERVICOS E TECNOLOGIA DA INFO1001202231012022                                                         1872520450004840000000000000000000000000000000000014
2059223000149510000017979000000000000ANA CINTIA DOS REIS COSTA              001122006CTA_RECURSAL 0000000839700               011872520450004840000000000000021001147200602102000015
2059223000149510000018096800000000000ARMANDO LUIZ DE ARRUDA                 001062007CTA_RECURSAL 0000000823028               011872520450004840000000000000042111820060420200000016
80592230001495100000000000000000000000                                                                                          1872520450004849999999999999999999999999999999000017
105922300014951SISPRO SIST PROC DADOS LTDA             1001202231012022                                                         1872520450005650000000000000000000000000000000000018
2059223000149510000012144919796188015ADALBERTO ROGERIO SPADINI              001121977CTA_RECURSAL 0000000093363               011872520450005651071374234500000000000000000000000019
2059223000149510000012128720961758015ERNANI AGUETE DARUS                    001021984CTA_RECURSAL 0000000041557               011872520450005651008099498600000000000000000000000020
2059223000149510000012110414906309020GILNEI ANTONIO DIAS DA SILVA           001071980CTA_RECURSAL 0000000195020               011872520450005651025841151900000000000000000000000021
2059223000149510000012101500000000000NOE SCHMITT                            009021983CTA_RECURSAL 0000000003331               011872520450005651022980486900000000000000000000000022
2059223000149510000012136800000000000VLADIMIR SILHENA PEREIRA               001021984CTA_RECURSAL 0000000054444               011872520450005650000000000000000000000000000000000023
80592230001495100000000000000000000000                                                                                          1872520450005659999999999999999999999999999999000024
105922300014951SISPRO SA SIST PROC DADOS               1001202231012022                                                         1872520450013750000000000000000000000000000000000025
2059223000149510000015844024018813015MARLENE MARIA PRINZ CANAL              010081978CTA_RECURSAL 0000000241617               011872520450013751069560493400001000060698201000000026
80592230001495100000000000000000000000                                                                                          1872520450013759999999999999999999999999999999000027
90000004000001800000040000000005685153                                                                                          9999999999999999999999999999999999999999999999000028
