0302FGTS114085790000160LEROY MERLIN CIA BRASILEIRA BR22022022                                                                 000000000000000000000000000000000000000000000000000001
109980703558646LEROY MERLIN CIA BRASILEIRA BRICOLAGEM  1001202231012022                                                         1014387840005200000000000000000000000000000000000002
2099807035586460000000050046477322668VALTER RIBEIRO DE PAULA                026112005CTA_RECURSAL 0000000853048               011014387840005201205070194400028000000000069006000003
80998070355864600000000000000000000000                                                                                          1014387840005209999999999999999999999999999999000004
90000001000000100000010000000000853048                                                                                          9999999999999999999999999999999999999999999999000005
