0302FGTS114085790000160BANCO BTG PACTUAL S A         22022022                                                                 000000000000000000000000000000000000000000000000000001
109901313968530BANCO BTG PACTUAL SA                    1001202231012022                                                         1303062940001450000000000000000000000000000000000002
2099013139685300000000341700000000000ALEXANDRE MACHADO SANTOS               027112015CTA_RECURSAL 0000001007871               011303062940001451214137249800029000069796201151000003
2099013139685300000000988100000000000ALEXANDRE MACHADO SANTOS               013042017CTA_RECURSAL 0000002062916               011303062940001451214137249800029000069796201151000004
2099013139685300000001313700000000000ALEXANDRE MACHADO SANTOS               004102017CTA_RECURSAL 0000001042367               011303062940001451214137249800029000069796201151000005
2099013139685300000000031000000000000ALLISON DILLES SANTOS PREDOLIN         017082015CTA_RECURSAL 0000001020442               011303062940001450000000000000069000214316201352000006
2099013139685300000000457000000000000ALLISON DILLES SANTOS PREDOLIN         028012016CTA_RECURSAL 0000001998748               011303062940001450000000000000069000214316201352000007
2099013139685300000000201100000000000ANA CAROLINA AKENATON OLIVEIRA         009102015CTA_RECURSAL 0000002032000               011303062940001450000000000000194000044419201355000008
2099013139685300000000848600000000000ANDRE HENRIQUE BUCHHEIM                014092016CTA_RECURSAL 0000001058219               011303062940001451242515932200042001128992201351000009
2099013139685300000000856700000000000ANDRE HENRIQUE BUCHHEIM                010102016CTA_RECURSAL 0000001058219               011303062940001451242515932200067001050943201451000010
2099013139685300000001046400000000000ANDRE HENRIQUE BUCHHEIM                008062017CTA_RECURSAL 0000002056272               011303062940001451242515932200042001128992201351000011
2099013139685300000001429000000000000ANDRE HENRIQUE BUCHHEIM                003112017CTA_RECURSAL 0000001039803               011303062940001451242515932200042001128992201351000012
2099013139685300000001275000000000000CLEBER LUCIANO REINEHR                 008092017CTA_RECURSAL 0000001044936               011303062940001451247400106000372002044391201754000013
2099013139685300000000139200000000000ELAINE SALES SOUTO                     001102015CTA_RECURSAL 0000000002557               011303062940001450000000000000007000111846201356000014
2099013139685300000001283100000000000FLAVIO PIRES NOGUEIRA                  002102017CTA_RECURSAL 0000001016348               011303062940001451202840497500078001173805201451000015
2099013139685300000001321800000000000FLAVIO PIRES NOGUEIRA                  002102017CTA_RECURSAL 0000000025991               011303062940001451202840497500078001173805201451000016
2099013139685300000000171600000000000GUILHERME SANCHES SILVA                016102015CTA_RECURSAL 0000001011670               011303062940001450000000000000032000098163201452000017
2099013139685300000000660200000000000ISRAEL SOBREIRA SOUSA                  007042016CTA_RECURSAL 0000000991347               011303062940001452068657967900083000251146201452000018
2099013139685300000001402800000000000ISRAEL SOBREIRA SOUSA                  024102017CTA_RECURSAL 0000002079634               011303062940001452068657967900083000251146201452000019
2099013139685300000000058200000000000IVANETE SILVA MAGALHAES                021082015CTA_RECURSAL 0000001020442               011303062940001451292401385400037000037196201455000020
2099013139685300000001054500000000000JORGE MAURICIO WENGRAT                 021062017CTA_RECURSAL 0000001025041               011303062940001451288158854000030100178112201652000021
2099013139685300000001020000000000000KLEBER PAULA RIBEIRO JUNIOR            017052017CTA_RECURSAL 0000001028123               011303062940001451273278356200053010119810201651000022
2099013139685300000001330700000000000MARCELO ROSA GALO                      010102017CTA_RECURSAL 0000001042367               011303062940001451267521668400001010195123201651000023
2099013139685300000000449900000000000MARCELO SILVA SANTOS                   026012016CTA_RECURSAL 0000000999358               011303062940001450000000000000024002048406201554000024
2099013139685300000000872900000000000MAURICIO LUIZ ORTENSI                  025102016CTA_RECURSAL 0000001053926               011303062940001451212670871500037100091580201652000025
2099013139685300000001399400000000000RICARDO ALVES ANJOS                    026102017CTA_RECURSAL 0000001039803               011303062940001451255532831000075100135474201652000026
2099013139685300000000783800000000000RODRIGO GUSTAVO SANTOS SARRAT          005082016CTA_RECURSAL 0000001067828               011303062940001450000000000000021001068818201451000027
2099013139685300000000465000000000000SILVANA CERCAL                         001022016CTA_RECURSAL 0000000999358               011303062940001450000000000020028000094554201451000028
2099013139685300000000384000000000000TATIANA OLIVEIRA PINTO                 026112015CTA_RECURSAL 0000001007871               011303062940001450000000000000341000128705201451000029
2099013139685300000001127400000000000TIAGO CASTRO DIMA                      012072017CTA_RECURSAL 0000001025041               011303062940001451901848732800006100113659201655000030
80990131396853000000000000000000000000                                                                                          1303062940001459999999999999999999999999999999000031
109901313968530BANCO BTG PACTUAL SA                    1001202231012022                                                         1303062940002260000000000000000000000000000000000032
2099013139685300000000309300000000000RAFAEL MENEZES BRUNHOSA SANTOS         012112015CTA_RECURSAL 0000000252086               011303062940002260000000000000081001009906201551000033
80990131396853000000000000000000000000                                                                                          1303062940002269999999999999999999999999999999000034
90000002000002900000020000000032110584                                                                                          9999999999999999999999999999999999999999999999000035
