0302FGTS114085790000160LEROY MERLIN CIA BRASILEIRA BR22022022                                                                 000000000000000000000000000000000000000000000000000001
109901307146680LEROY MERLIN CIA BRASILEIRA BRICOLAGEM  1001202231012022                                                         1014387840001050000000000000000000000000000000000002
2099013071466800000002535500000000000ALESSANDRO BARBOSA SOUZA               028062017CTA_RECURSAL 0000001025041               011014387840001050000000000000291100147048201552000003
2099013071466800000002896600000000000ALESSANDRO BARBOSA SOUZA               011092017CTA_RECURSAL 0000000026054               011014387840001050000000000000291100147048201552000004
2099013071466800000001784000000000000ANA PAULA LIMA                         030122016CTA_RECURSAL 0000001027221               011014387840001050000000000000468100214647201552000005
2099013071466800000002349200000000000ANDREA LOURENCO BASTOS                 031052017CTA_RECURSAL 0000000087293               011014387840001050000000000000063010147678201651000006
2099013071466800000002470700000000000ANTONIO PEREIRA ARAUJO                 023062017CTA_RECURSAL 0000001025041               011014387840001050000000000020105000093098201652000007
2099013071466800000002748000000000000CHRISTIAN LEDUR                        007082017CTA_RECURSAL 0000000026133               011014387840001050000000000000331002141558201554000008
2099013071466800000002160000000000000DANIELE MARIA ALICE CARAPETTO          004042017CTA_RECURSAL 0000001731095               011014387840001050000000000000471100227373201552000009
2099013071466800000002527400000000000DIANA ROSA SANTOS                      030062017CTA_RECURSAL 0000001025041               011014387840001051301257277400085100203429201652000010
2099013071466800000001814600000000000DIEGO ALMEIDA BRAGA                    007122016CTA_RECURSAL 0000001049841               011014387840001051348209393700708100138368201652000011
2099013071466800000002918000000000000ELCIO ANTONIO LIMA KLEN                027092017CTA_RECURSAL 0000000012409               011014387840001050000000000000002010093886201651000012
2099013071466800000002012400000000000EVANDRO RODRIGUES COSTA                022022017CTA_RECURSAL 0000000608904               011014387840001050000000000000034001106088201551000013
2099013071466800000001938000000000000FLAVIA REGINA SILVA                    006022017CTA_RECURSAL 0000000813297               011014387840001050000000000000029001130038201553000014
2099013071466800000002322000000000000FLAVIA REGINA SILVA                    017052017CTA_RECURSAL 0000000803246               011014387840001050000000000000029001130038201553000015
2099013071466800000001857000000000000FRANCISCO ERISMAR ROSENO ANDRADE       020012017CTA_RECURSAL 0000000580917               011014387840001050000000000000075000223335201552000016
2099013071466800000002624600000000000GRACIANE SOARES SILVA                  027072017CTA_RECURSAL 0000000168075               011014387840001052101380489000008000005931201352000017
2099013071466800000003019700000000000ICARO JOSE PENA SERRA                  011102017CTA_RECURSAL 0000001039803               011014387840001050000000000000712100035468201652000018
2099013071466800000002799400000000000ISALTINA MOREIRA MORAIS                029082017CTA_RECURSAL 0000001044936               011014387840001050000000000000108001078557201553000019
2099013071466800000001377200000000000JESSICA SANTOS WITZEL                  029082016CTA_RECURSAL 0000000948696               011014387840001050000000000000334002094263201554000020
2099013071466800000002225900000000000JOAO FERREIRA SILVA                    027042017CTA_RECURSAL 0000001031446               011014387840001050000000000080001001154871201551000021
2099013071466800000003000600000000000JOAO TADEU CASTRO                      011102017CTA_RECURSAL 0000001042367               011014387840001050000000000000066000205720201452000022
2099013071466800000001210500000000000JONATHAN JESUS SOUZA                   005072016CTA_RECURSAL 0000000227347               011014387840001050000000000050045001088826201551000023
2099013071466800000003086300000000000JOSE CARLOS ALVES OLIVEIRA             008112017CTA_RECURSAL 0000001039803               011014387840001050000000000000011000021024201751000024
2099013071466800000002802800000000000JOSE EDNALDO TEIXEIRA GOMES            029082017CTA_RECURSAL 0000001044936               011014387840001051705722151500465100192976201652000025
2099013071466800000002101500000000000JOSE JAMENES SOUSA MACEDO              031032017CTA_RECURSAL 0000001033989               011014387840001051231621304000014000152719201551000026
2099013071466800000002195300000000000JOSE JAMENES SOUSA MACEDO              011042017CTA_RECURSAL 0000001033989               011014387840001051231621304000014000152719201551000027
2099013071466800000002292500000000000JOSIANE CANDEIA RODRIGUES SANTANA      010052017CTA_RECURSAL 0000001028123               011014387840001051630675782200720100057879201652000028
2099013071466800000000907400000000000LEONARDO MISAEL GUIMARAES SILVA        011022016CTA_RECURSAL 0000000056658               011014387840001050000000000000106001023908201553000029
2099013071466800000000923600000000000LINDOMAR TEIXEIRA COSTA                019022016CTA_RECURSAL 0000000995943               011014387840001050000000000000058000178380201452000030
2099013071466800000001245800000000000LINDOMAR TEIXEIRA COSTA                013072016CTA_RECURSAL 0000000487620               011014387840001051808783841100058000178380201452000031
2099013071466800000001369100000000000LINDOMAR TEIXEIRA COSTA                030082016CTA_RECURSAL 0000001062499               011014387840001051808783841100058000178380201452000032
2099013071466800000001407800000000000MARCO ANTONIO COELHO MATTANA           012092016CTA_RECURSAL 0000001062499               011014387840001050000000000000001002108093201454000033
2099013071466800000000168500000000000MARTA OLIVEIRA FIGUEIREDO              002032015CTA_RECURSAL 0000000956431               011014387840001050000000000000002000120618201359000034
2099013071466800000000664400000000000MARTA OLIVEIRA FIGUEIREDO              004112015CTA_RECURSAL 0000000310800               011014387840001050000000000000002000120618201359000035
2099013071466800000000346700000000000MIRIAM CRISTINA NANI BUXTON            019062015CTA_RECURSAL 0000000942015               011014387840001050000000000000673000086227201459000036
2099013071466800000000621000000000000MIRIAM CRISTINA NANI BUXTON            005102015CTA_RECURSAL 0000000086532               011014387840001050000000000000673000086227201459000037
2099013071466800000002179100000000000MIRIAM CRISTINA NANI BUXTON            003042017CTA_RECURSAL 0000001363742               011014387840001051250787620600673000086227201459000038
2099013071466800000001792100000000000NOBERTO SANTOS SILVA                   006122016CTA_RECURSAL 0000001049841               011014387840001050000000000000468100222997201452000039
2099013071466800000002446400000000000PATRICIA SOUSA BRITO                   012062017CTA_RECURSAL 0000001025041               011014387840001050000000000000006000027362201559000040
2099013071466800000002373500000000000REGIS SILVA CERQUEIRA                  018052017CTA_RECURSAL 0000001028123               011014387840001050000000000000046000199307201352000041
2099013071466800000002403000000000000VALDINEI SOUZA SILVA                   030052017CTA_RECURSAL 0000001028123               011014387840001051254150215150093001194158201651000042
2099013071466800000003043000000000000VALDINEI SOUZA SILVA                   023102017CTA_RECURSAL 0000002079634               011014387840001051254150215150093001194158201651000043
80990130714668000000000000000000000000                                                                                          1014387840001059999999999999999999999999999999000044
109901307146680LEROY MERLIN CIA BRASILEIRA BRICOLAGEM  1001202231012022                                                         1014387840011790000000000000000000000000000000000045
2099013071466800000001032300000000000ANTONIO VILELA MELO                    008042016CTA_RECURSAL 0000001982728               011014387840011790000000000000058000020094201352000046
80990130714668000000000000000000000000                                                                                          1014387840011799999999999999999999999999999999000047
109901307146680LEROY MERLIN CIA BRASILEIRA BRICOLAGEM  1001202231012022                                                         1014387840012500000000000000000000000000000000000048
2099013071466800000001725500000000000ANDREZZA SALOMAO MAIA MADEIRA          016112016CTA_RECURSAL 0000000060218               011014387840012500000000000000025001028826201351000049
2099013071466800000000559100000000000FRANCISCO MARCOS MODESTO               017092015CTA_RECURSAL 0000000004677               011014387840012500000000000000022001135161201451000050
80990130714668000000000000000000000000                                                                                          1014387840012509999999999999999999999999999999000051
109901307146680LEROY MERLIN CIA BRASILEIRA BRICOLAGEM  1001202231012022                                                         1014387840015000000000000000000000000000000000000052
2099013071466800000000800000000000000DIOGENES SOUZA DAMASCENO               011122015CTA_RECURSAL 0000001003143               011014387840015000000000000000466100055794201352000053
80990130714668000000000000000000000000                                                                                          1014387840015009999999999999999999999999999999000054
109901307146680LEROY MERLIN CIA BRASILEIRA BRICOLAGEM  1001202231012022                                                         1014387840016830000000000000000000000000000000000055
2099013071466800000000842600000000000KATIA MARIA SANTOS SOUSA               022012016CTA_RECURSAL 0000000999358               011014387840016830000000000000053000061609201552000056
80990130714668000000000000000000000000                                                                                          1014387840016839999999999999999999999999999999000057
90000005000004600000050000000038110668                                                                                          9999999999999999999999999999999999999999999999000058
