0302FGTS114085790000160COOPERATIVA LANGUIRU LTDA     22022022                                                                 000000000000000000000000000000000000000000000000000001
105871900294156COOPERATIVA LANGUIRU LTDA               1001202231012022                                                         1897741600001000000000000000000000000000000000000002
2058719002941560000020867822024638015JOSE VALDIR DA SILVA                   026111986CTA_RECURSAL 0000000222708               011897741600001001025140098800000000000000000000000003
2058719002941560000020875924077844053OLAVO SCHWINGEL                        013071989CTA_RECURSAL 0000000005094               011897741600001001025698023000000000000000000000000004
2058719002941560000137756200000000000SIMONE RODRIGUES DUARTE                028082015CTA_RECURSAL 0000000913812               011897741600001001656061302000002208434420145040000005
80587190029415600000000000000000000000                                                                                          1897741600001009999999999999999999999999999999000006
105871900294156COOPERATIVA R A LANGUIRU LTDA           1001202231012022                                                         1897741600005250000000000000000000000000000000000007
2058719002941560000152127200000000000BRUNO MARCOLINO CARDOSO                002052017CTA_RECURSAL 0000001031485               011897741600005251600909447000002201490720165040000008
2058719002941560000148774000000000000CRISTIANO RAMOS ORTIZ                  005122016CTA_RECURSAL 0000001049885               011897741600005251621207513200002200252420165040000009
2058719002941560000140331800000000000GENESIO ARRUDA                         001022016CTA_RECURSAL 0000000000464               011897741600005251232126923700002002081576201450000010
2058719002941560000144540100000000000JAIMIR SILVA                           019072016CTA_RECURSAL 0000000595896               011897741600005251258640267900002208743020155040000011
2058719002941560000144531251739585020JANINE SILVA JASIULZWICZ               019072016CTA_RECURSAL 0000000034131               011897741600005251312052767900002204378620155040000012
2058719002941560000152690851739585020JANINE SILVA JASIULZWICZ               025052017CTA_RECURSAL 0000000087443               011897741600005251312052767900002204378620155040000013
2058719002941560000155681500000000000ROSELI BECKER SILVA                    019092017CTA_RECURSAL 0000000283573               011897741600005251251129926900001202357520165040000014
2058719002941560000152763700000000000SILVANI WAHLBRINCK                     019062017CTA_RECURSAL 0000000915253               011897741600005251271255069400002202426720165040000015
2058719002941560000144515000000000000VALMIR HORST                           007072016CTA_RECURSAL 0000000979263               011897741600005251262532668000002206283420155040000016
2058719002941560000151228100000000000VALMIR HORST                           002032017CTA_RECURSAL 0000000905719               011897741600005251262532668000002206283420155040000017
80587190029415600000000000000000000000                                                                                          1897741600005259999999999999999999999999999999000018
105871900294156COOPERATIVA LANGUIRU LTDA               1001202231012022                                                         1897741600006060000000000000000000000000000000000019
2058719002941560000140340700000000000GILMAR LOEBLEIN                        018022016CTA_RECURSAL 0000000995943               011897741600006061252216841100001201364520155040000020
2058719002941560000144523100000000000GILMAR LOEBLEIN                        019072016CTA_RECURSAL 0000000931637               011897741600006061252216841100001201364520165040000021
2058719002941560000152097700000000000OLAVO DICKEL                           026042017CTA_RECURSAL 0000000920965               011897741600006061244688849800002200780520165040000022
2058719002941560000152135323983035000OLAVO DICKEL                           031032017CTA_RECURSAL 0000000001190               011897741600006061244688849840782000000208397050000023
2058719002941560000144060400000000000TIAGO ROSA MEDINA                      008062016CTA_RECURSAL 0000000601035               011897741600006061292242769400002206327120155040000024
2058719002941560000149568900000000000TIAGO ROSA MEDINA                      030012017CTA_RECURSAL 0000000116157               011897741600006061292242769400002002063271201550000025
80587190029415600000000000000000000000                                                                                          1897741600006069999999999999999999999999999999000026
105871900294156COOPERATIVA LANGUIRU LTDA               1001202231012022                                                         1897741600013350000000000000000000000000000000000027
2058719002941560000152747500000000000AGUINALDO BOHN                         012062017CTA_RECURSAL 0000000228793               011897741600013351259789869700002202253120165040000028
2058719002941560000135834700000000000CARLOS ALEXANDRE SORTICA GONCALVES     016072015CTA_RECURSAL 0000000000756               011897741600013350000000000000002002072908201450000029
2058719002941560000152100000000000000LUCAS PENTEADO                         026042017CTA_RECURSAL 0000000373004               011897741600013350000000000002016000000002013963000030
2058719002941560000154111700000000000LUCAS PENTEADO                         024082017CTA_RECURSAL 0000000004520               011897741600013351261649367700001201396320165040000031
2058719002941560000142571000000000000MAIRA JULIANA CARDOSO                  004042016CTA_RECURSAL 0000000001053               011897741600013351635348654600001202941120155040000032
2058719002941560000148766000000000000TALITA ROSA                            030112016CTA_RECURSAL 0000000000856               011897741600013351653292323100002207391820155040000033
80587190029415600000000000000000000000                                                                                          1897741600013359999999999999999999999999999999000034
105871900294156COOP R A LANGUIRU LTDA                  1001202231012022                                                         1897741600056750000000000000000000000000000000000035
2058719002941560000123917800000000000EDEGAR NUSCK                           024112014CTA_RECURSAL 0000001931126               011897741600056751274392771400002793372013504078000036
2058719002941560000110645300000000000EDEGAR NUSCKE                          024032014CTA_RECURSAL 0000000978646               011897741600056750000000000000002793342013504078000037
80587190029415600000000000000000000000                                                                                          1897741600056759999999999999999999999999999999000038
90000005000002700000050000000014110407                                                                                          9999999999999999999999999999999999999999999999000039
