0302FGTS114085790000160SISPRO SA SISTEMAS E PROCES DA22022022                                                                 000000000000000000000000000000000000000000000000000001
109901300359122SISPRO SA SERVICOS E TECNOLOGIA DA INFOR1001202231012022                                                         1872520450009990000000000000000000000000000000000002
2099013003591220000000060500000000000ELIEL FRANCA GOMES                     025042016CTA_RECURSAL 0000000605035               011872520450009991230736451100009001118194201551000003
80990130035912200000000000000000000000                                                                                          1872520450009999999999999999999999999999999999000004
90000001000000100000010000000000605035                                                                                          9999999999999999999999999999999999999999999999000005
