0302FGTS114085790000160CTD COMPANHIA DE TECNOLOGIA DI22022022                                                                 000000000000000000000000000000000000000000000000000001
100463000002067CTD COMPANHIA DE TECNOLOGIA DIGITAL     1001202231012022                                                         1934454840001630000000000000000000000000000000000002
2004630000020670000004207800000000000MAURICIO GARCIA CORREA                 031082015CTA_RECURSAL 0000000277781               011934454840001631282302471000004209870620145040000003
2004630000020670000004258200000000000RONALDO CESAR AVILA MADRUGA            001032010CTA_RECURSAL 0000000722322               011934454840001631284754770500005200777320145040000004
80046300000206700000000000000000000000                                                                                          1934454840001639999999999999999999999999999999000005
90000001000000200000010000000001000103                                                                                          9999999999999999999999999999999999999999999999000006
