0302FGTS114085790000160BANCO PACTUAL S A             22022022                                                                 000000000000000000000000000000000000000000000000000001
109970508116543BANCO PACTUAL S A                       1001202231012022                                                         1303062940001450000000000000000000000000000000000002
2099705081165430000000804600000000000ANDREA DIAS SILVA                      024072015CTA_RECURSAL 0000001875125               011303062940001450000000000000004000011265962013000003
2099705081165430000000529200000000000CARLOS ALBERTO SENRA SANTOS            024072013CTA_RECURSAL 0000000893433               011303062940001450000000000000081000000483122012000004
2099705081165430000000731700000000000DAIANE SANTOS PUGAS                    009062015CTA_RECURSAL 0000001892146               011303062940001450000000000000003000001571922013000005
2099705081165430000000030401418715719FABIO MAGALHAES GOMES                  023052004CTA_RECURSAL 0000000199148               011303062940001451244777705300029000200302901005000006
2099705081165430000000260900000000000FERNANDO ANTONIO CLAUDIO JUNIOR        004072012CTA_RECURSAL 0000001759695               011303062940001450000000000000018000001747662011000007
2099705081165430000000545400000000000JANE SANTOS SILVA                      017102013CTA_RECURSAL 0000000947721               011303062940001450000000000000068000001292412012000008
2099705081165430000000308706067056437JOSE A N SILVA FILHO                   031072012CTA_RECURSAL 0000000920524               011303062940001451364182893600007000000964962011000009
2099705081165430000000693000000000000LILIANE MATTOS RODRIGUES               025052015CTA_RECURSAL 0000000946052               011303062940001450000000000000035000000411662012000010
2099705081165430000000111402218731711MARCELO CHAVES SOARES                  025052011CTA_RECURSAL 0000000859339               011303062940001451819454854900018000000112252008000011
2099705081165430000000430000000000000MARCELO F COLESI VASCONCELOS GALVAO    001032013CTA_RECURSAL 0000001809432               011303062940001450000000000000066000006040521999000012
2099705081165430000000049512610147821MARCELO FRAZATTO COLESI V GALVAO       007052006CTA_RECURSAL 0000000841166               011303062940001451247962473200066000000000601999000013
2099705081165430000000090812610147821MARCELO FRAZATTO COLESI V GALVAO       011022009CTA_RECURSAL 0000001697910               011303062940001451247962473200066000000000601999000014
2099705081165430000000316800000000000MARCELO FRAZATTO COLEZI VASCONCELOS G  007082012CTA_RECURSAL 0000001841114               011303062940001450000000000000066000006041371999000015
2099705081165430000000324900000000000MARCELO FRAZATTO COLEZI VASCONCELOS G  007082012CTA_RECURSAL 0000001841114               011303062940001450000000000000066000006041371999000016
2099705081165430000000391500000000000MARIANA FERREIRA CRUZ LIMA             004122012CTA_RECURSAL 0000000911391               011303062940001450000000000000062000000006172012000017
2099705081165430000000820800000000000RODRIGO GUSTAVO SANTOS SARRAT          029072015CTA_RECURSAL 0000001875125               011303062940001450000000000000021000010688182014000018
2099705081165430000000421000000000000SONIA MOREIRA SANTANA ALMEIDA          005022013CTA_RECURSAL 0000001374527               011303062940001450000000000000072000001144862010000019
80997050811654300000000000000000000000                                                                                          1303062940001459999999999999999999999999999999000020
109970508116543BANCO BTG PACTUAL SA                    1001202231012022                                                         1303062940002260000000000000000000000000000000000021
2099705081165430000000448200000000000TATIANE APARECIDA DIAN HERMANE         001032013CTA_RECURSAL 0000000904683               011303062940002260000000000000069000037300892009000022
80997050811654300000000000000000000000                                                                                          1303062940002269999999999999999999999999999999000023
90000002000001800000020000000023389645                                                                                          9999999999999999999999999999999999999999999999000024
