0302FGTS114085790000160SISPRO SIST PROC DADOS LTDA   22022022                                                                 000000000000000000000000000000000000000000000000000001
106966800293978SISPRO SIST PROC DADOS LTDA             1001202231012022                                                         1872520450001310000000000000000000000000000000000002
2069668002939780000000052415400971881FRANCISCO FERREIRA DANTAS              018071989CTA_RECURSAL 0000000510091               011872520450001311233272850500000000000000000000000003
2069668002939780000000010900000000000JOAO FRANCISCO MONTEIRO                024011980CTA_RECURSAL 0000000138991000000404040404011872520450001311037691002700000000000000000000000004
2069668002939780000000044390620763868LEONELO NALDI NETO                     001101991CTA_RECURSAL 0000000035859               011872520450001311043967202000000000000000000000000005
2069668002939780000000028108039062004VERONIL LUIZ COSER                     026011987CTA_RECURSAL 0000000116055000000404040404011872520450001311024553035200000000000000000000000006
80696680029397800000000000000000000000                                                                                          1872520450001319999999999999999999999999999999000007
90000001000000400000010000000000800996                                                                                          9999999999999999999999999999999999999999999999000008
